{
  "contractName": "VolcanoToken",
  "abi": [
    {
      "inputs": [],
      "stateMutability": "nonpayable",
      "type": "constructor"
    },
    {
      "anonymous": false,
      "inputs": [
        {
          "indexed": true,
          "internalType": "address",
          "name": "owner",
          "type": "address"
        },
        {
          "indexed": true,
          "internalType": "address",
          "name": "approved",
          "type": "address"
        },
        {
          "indexed": true,
          "internalType": "uint256",
          "name": "tokenId",
          "type": "uint256"
        }
      ],
      "name": "Approval",
      "type": "event"
    },
    {
      "anonymous": false,
      "inputs": [
        {
          "indexed": true,
          "internalType": "address",
          "name": "owner",
          "type": "address"
        },
        {
          "indexed": true,
          "internalType": "address",
          "name": "operator",
          "type": "address"
        },
        {
          "indexed": false,
          "internalType": "bool",
          "name": "approved",
          "type": "bool"
        }
      ],
      "name": "ApprovalForAll",
      "type": "event"
    },
    {
      "anonymous": false,
      "inputs": [
        {
          "indexed": true,
          "internalType": "address",
          "name": "previousOwner",
          "type": "address"
        },
        {
          "indexed": true,
          "internalType": "address",
          "name": "newOwner",
          "type": "address"
        }
      ],
      "name": "OwnershipTransferred",
      "type": "event"
    },
    {
      "anonymous": false,
      "inputs": [
        {
          "indexed": true,
          "internalType": "address",
          "name": "from",
          "type": "address"
        },
        {
          "indexed": true,
          "internalType": "address",
          "name": "to",
          "type": "address"
        },
        {
          "indexed": true,
          "internalType": "uint256",
          "name": "tokenId",
          "type": "uint256"
        }
      ],
      "name": "Transfer",
      "type": "event"
    },
    {
      "inputs": [
        {
          "internalType": "address",
          "name": "to",
          "type": "address"
        },
        {
          "internalType": "uint256",
          "name": "tokenId",
          "type": "uint256"
        }
      ],
      "name": "approve",
      "outputs": [],
      "stateMutability": "nonpayable",
      "type": "function"
    },
    {
      "inputs": [
        {
          "internalType": "address",
          "name": "owner",
          "type": "address"
        }
      ],
      "name": "balanceOf",
      "outputs": [
        {
          "internalType": "uint256",
          "name": "",
          "type": "uint256"
        }
      ],
      "stateMutability": "view",
      "type": "function",
      "constant": true
    },
    {
      "inputs": [
        {
          "internalType": "uint256",
          "name": "tokenId",
          "type": "uint256"
        }
      ],
      "name": "getApproved",
      "outputs": [
        {
          "internalType": "address",
          "name": "",
          "type": "address"
        }
      ],
      "stateMutability": "view",
      "type": "function",
      "constant": true
    },
    {
      "inputs": [
        {
          "internalType": "address",
          "name": "owner",
          "type": "address"
        },
        {
          "internalType": "address",
          "name": "operator",
          "type": "address"
        }
      ],
      "name": "isApprovedForAll",
      "outputs": [
        {
          "internalType": "bool",
          "name": "",
          "type": "bool"
        }
      ],
      "stateMutability": "view",
      "type": "function",
      "constant": true
    },
    {
      "inputs": [],
      "name": "name",
      "outputs": [
        {
          "internalType": "string",
          "name": "",
          "type": "string"
        }
      ],
      "stateMutability": "view",
      "type": "function",
      "constant": true
    },
    {
      "inputs": [],
      "name": "owner",
      "outputs": [
        {
          "internalType": "address",
          "name": "",
          "type": "address"
        }
      ],
      "stateMutability": "view",
      "type": "function",
      "constant": true
    },
    {
      "inputs": [
        {
          "internalType": "uint256",
          "name": "tokenId",
          "type": "uint256"
        }
      ],
      "name": "ownerOf",
      "outputs": [
        {
          "internalType": "address",
          "name": "",
          "type": "address"
        }
      ],
      "stateMutability": "view",
      "type": "function",
      "constant": true
    },
    {
      "inputs": [
        {
          "internalType": "address",
          "name": "",
          "type": "address"
        },
        {
          "internalType": "uint256",
          "name": "",
          "type": "uint256"
        }
      ],
      "name": "ownership",
      "outputs": [
        {
          "internalType": "uint256",
          "name": "timestamp",
          "type": "uint256"
        },
        {
          "internalType": "uint256",
          "name": "tokenId",
          "type": "uint256"
        },
        {
          "internalType": "string",
          "name": "tokenURI",
          "type": "string"
        }
      ],
      "stateMutability": "view",
      "type": "function",
      "constant": true
    },
    {
      "inputs": [],
      "name": "renounceOwnership",
      "outputs": [],
      "stateMutability": "nonpayable",
      "type": "function"
    },
    {
      "inputs": [
        {
          "internalType": "address",
          "name": "from",
          "type": "address"
        },
        {
          "internalType": "address",
          "name": "to",
          "type": "address"
        },
        {
          "internalType": "uint256",
          "name": "tokenId",
          "type": "uint256"
        }
      ],
      "name": "safeTransferFrom",
      "outputs": [],
      "stateMutability": "nonpayable",
      "type": "function"
    },
    {
      "inputs": [
        {
          "internalType": "address",
          "name": "from",
          "type": "address"
        },
        {
          "internalType": "address",
          "name": "to",
          "type": "address"
        },
        {
          "internalType": "uint256",
          "name": "tokenId",
          "type": "uint256"
        },
        {
          "internalType": "bytes",
          "name": "_data",
          "type": "bytes"
        }
      ],
      "name": "safeTransferFrom",
      "outputs": [],
      "stateMutability": "nonpayable",
      "type": "function"
    },
    {
      "inputs": [
        {
          "internalType": "address",
          "name": "operator",
          "type": "address"
        },
        {
          "internalType": "bool",
          "name": "approved",
          "type": "bool"
        }
      ],
      "name": "setApprovalForAll",
      "outputs": [],
      "stateMutability": "nonpayable",
      "type": "function"
    },
    {
      "inputs": [
        {
          "internalType": "bytes4",
          "name": "interfaceId",
          "type": "bytes4"
        }
      ],
      "name": "supportsInterface",
      "outputs": [
        {
          "internalType": "bool",
          "name": "",
          "type": "bool"
        }
      ],
      "stateMutability": "view",
      "type": "function",
      "constant": true
    },
    {
      "inputs": [],
      "name": "symbol",
      "outputs": [
        {
          "internalType": "string",
          "name": "",
          "type": "string"
        }
      ],
      "stateMutability": "view",
      "type": "function",
      "constant": true
    },
    {
      "inputs": [],
      "name": "tokenID",
      "outputs": [
        {
          "internalType": "uint256",
          "name": "",
          "type": "uint256"
        }
      ],
      "stateMutability": "view",
      "type": "function",
      "constant": true
    },
    {
      "inputs": [
        {
          "internalType": "uint256",
          "name": "tokenId",
          "type": "uint256"
        }
      ],
      "name": "tokenURI",
      "outputs": [
        {
          "internalType": "string",
          "name": "",
          "type": "string"
        }
      ],
      "stateMutability": "view",
      "type": "function",
      "constant": true
    },
    {
      "inputs": [
        {
          "internalType": "address",
          "name": "from",
          "type": "address"
        },
        {
          "internalType": "address",
          "name": "to",
          "type": "address"
        },
        {
          "internalType": "uint256",
          "name": "tokenId",
          "type": "uint256"
        }
      ],
      "name": "transferFrom",
      "outputs": [],
      "stateMutability": "nonpayable",
      "type": "function"
    },
    {
      "inputs": [
        {
          "internalType": "address",
          "name": "newOwner",
          "type": "address"
        }
      ],
      "name": "transferOwnership",
      "outputs": [],
      "stateMutability": "nonpayable",
      "type": "function"
    },
    {
      "inputs": [
        {
          "internalType": "string",
          "name": "_tokenURI",
          "type": "string"
        }
      ],
      "name": "mint",
      "outputs": [],
      "stateMutability": "nonpayable",
      "type": "function"
    }
  ],
  "bytecode": "0x608060405260016007553480156200001657600080fd5b506040518060400160405280600c81526020017f566f6c63616e6f546f6b656e00000000000000000000000000000000000000008152506040518060400160405280600381526020017f564c54000000000000000000000000000000000000000000000000000000000081525081600090805190602001906200009b929190620001ab565b508060019080519060200190620000b4929190620001ab565b505050620000d7620000cb620000dd60201b60201c565b620000e560201b60201c565b620002c0565b600033905090565b6000600660009054906101000a900473ffffffffffffffffffffffffffffffffffffffff16905081600660006101000a81548173ffffffffffffffffffffffffffffffffffffffff021916908373ffffffffffffffffffffffffffffffffffffffff1602179055508173ffffffffffffffffffffffffffffffffffffffff168173ffffffffffffffffffffffffffffffffffffffff167f8be0079c531659141344cd1fd0a4f28419497f9722a3daafe3b4186f6b6457e060405160405180910390a35050565b828054620001b9906200028a565b90600052602060002090601f016020900481019282620001dd576000855562000229565b82601f10620001f857805160ff191683800117855562000229565b8280016001018555821562000229579182015b82811115620002285782518255916020019190600101906200020b565b5b5090506200023891906200023c565b5090565b5b80821115620002575760008160009055506001016200023d565b5090565b7f4e487b7100000000000000000000000000000000000000000000000000000000600052602260045260246000fd5b60006002820490506001821680620002a357607f821691505b60208210811415620002ba57620002b96200025b565b5b50919050565b612ed380620002d06000396000f3fe608060405234801561001057600080fd5b50600436106101215760003560e01c80638da5cb5b116100ad578063c87b56dd11610071578063c87b56dd146102f4578063d85d3d2714610324578063e985e9c514610340578063ee9bfc8c14610370578063f2fde38b146103a257610121565b80638da5cb5b1461026257806395d89b4114610280578063a22cb4651461029e578063a5c42ef1146102ba578063b88d4fde146102d857610121565b806323b872dd116100f457806323b872dd146101c057806342842e0e146101dc5780636352211e146101f857806370a0823114610228578063715018a61461025857610121565b806301ffc9a71461012657806306fdde0314610156578063081812fc14610174578063095ea7b3146101a4575b600080fd5b610140600480360381019061013b9190611c30565b6103be565b60405161014d9190611c78565b60405180910390f35b61015e6104a0565b60405161016b9190611d2c565b60405180910390f35b61018e60048036038101906101899190611d84565b610532565b60405161019b9190611df2565b60405180910390f35b6101be60048036038101906101b99190611e39565b6105b7565b005b6101da60048036038101906101d59190611e79565b6106cf565b005b6101f660048036038101906101f19190611e79565b61072f565b005b610212600480360381019061020d9190611d84565b61074f565b60405161021f9190611df2565b60405180910390f35b610242600480360381019061023d9190611ecc565b610801565b60405161024f9190611f08565b60405180910390f35b6102606108b9565b005b61026a610941565b6040516102779190611df2565b60405180910390f35b61028861096b565b6040516102959190611d2c565b60405180910390f35b6102b860048036038101906102b39190611f4f565b6109fd565b005b6102c2610a13565b6040516102cf9190611f08565b60405180910390f35b6102f260048036038101906102ed91906120c4565b610a19565b005b61030e60048036038101906103099190611d84565b610a7b565b60405161031b9190611d2c565b60405180910390f35b61033e600480360381019061033991906121e8565b610b22565b005b61035a60048036038101906103559190612231565b610c07565b6040516103679190611c78565b60405180910390f35b61038a60048036038101906103859190611e39565b610c9b565b60405161039993929190612271565b60405180910390f35b6103bc60048036038101906103b79190611ecc565b610d6a565b005b60007f80ac58cd000000000000000000000000000000000000000000000000000000007bffffffffffffffffffffffffffffffffffffffffffffffffffffffff1916827bffffffffffffffffffffffffffffffffffffffffffffffffffffffff1916148061048957507f5b5e139f000000000000000000000000000000000000000000000000000000007bffffffffffffffffffffffffffffffffffffffffffffffffffffffff1916827bffffffffffffffffffffffffffffffffffffffffffffffffffffffff1916145b80610499575061049882610e62565b5b9050919050565b6060600080546104af906122de565b80601f01602080910402602001604051908101604052809291908181526020018280546104db906122de565b80156105285780601f106104fd57610100808354040283529160200191610528565b820191906000526020600020905b81548152906001019060200180831161050b57829003601f168201915b5050505050905090565b600061053d82610ecc565b61057c576040517f08c379a000000000000000000000000000000000000000000000000000000000815260040161057390612382565b60405180910390fd5b6004600083815260200190815260200160002060009054906101000a900473ffffffffffffffffffffffffffffffffffffffff169050919050565b60006105c28261074f565b90508073ffffffffffffffffffffffffffffffffffffffff168373ffffffffffffffffffffffffffffffffffffffff161415610633576040517f08c379a000000000000000000000000000000000000000000000000000000000815260040161062a90612414565b60405180910390fd5b8073ffffffffffffffffffffffffffffffffffffffff16610652610f38565b73ffffffffffffffffffffffffffffffffffffffff16148061068157506106808161067b610f38565b610c07565b5b6106c0576040517f08c379a00000000000000000000000000000000000000000000000000000000081526004016106b7906124a6565b60405180910390fd5b6106ca8383610f40565b505050565b6106e06106da610f38565b82610ff9565b61071f576040517f08c379a000000000000000000000000000000000000000000000000000000000815260040161071690612538565b60405180910390fd5b61072a8383836110d7565b505050565b61074a83838360405180602001604052806000815250610a19565b505050565b6000806002600084815260200190815260200160002060009054906101000a900473ffffffffffffffffffffffffffffffffffffffff169050600073ffffffffffffffffffffffffffffffffffffffff168173ffffffffffffffffffffffffffffffffffffffff1614156107f8576040517f08c379a00000000000000000000000000000000000000000000000000000000081526004016107ef906125ca565b60405180910390fd5b80915050919050565b60008073ffffffffffffffffffffffffffffffffffffffff168273ffffffffffffffffffffffffffffffffffffffff161415610872576040517f08c379a00000000000000000000000000000000000000000000000000000000081526004016108699061265c565b60405180910390fd5b600360008373ffffffffffffffffffffffffffffffffffffffff1673ffffffffffffffffffffffffffffffffffffffff168152602001908152602001600020549050919050565b6108c1610f38565b73ffffffffffffffffffffffffffffffffffffffff166108df610941565b73ffffffffffffffffffffffffffffffffffffffff1614610935576040517f08c379a000000000000000000000000000000000000000000000000000000000815260040161092c906126c8565b60405180910390fd5b61093f6000611333565b565b6000600660009054906101000a900473ffffffffffffffffffffffffffffffffffffffff16905090565b60606001805461097a906122de565b80601f01602080910402602001604051908101604052809291908181526020018280546109a6906122de565b80156109f35780601f106109c8576101008083540402835291602001916109f3565b820191906000526020600020905b8154815290600101906020018083116109d657829003601f168201915b5050505050905090565b610a0f610a08610f38565b83836113f9565b5050565b60075481565b610a2a610a24610f38565b83610ff9565b610a69576040517f08c379a0000000000000000000000000000000000000000000000000000000008152600401610a6090612538565b60405180910390fd5b610a7584848484611566565b50505050565b6060610a8682610ecc565b610ac5576040517f08c379a0000000000000000000000000000000000000000000000000000000008152600401610abc9061275a565b60405180910390fd5b6000610acf6115c2565b90506000815111610aef5760405180602001604052806000815250610b1a565b80610af9846115d9565b604051602001610b0a9291906127b6565b6040516020818303038152906040525b915050919050565b600060405180606001604052804281526020016007548152602001838152509050610b4f3360075461173a565b600860003373ffffffffffffffffffffffffffffffffffffffff1673ffffffffffffffffffffffffffffffffffffffff16815260200190815260200160002081908060018154018082558091505060019003906000526020600020906003020160009091909190915060008201518160000155602082015181600101556040820151816002019080519060200190610be8929190611b21565b50505060076000815480929190610bfe90612809565b91905055505050565b6000600560008473ffffffffffffffffffffffffffffffffffffffff1673ffffffffffffffffffffffffffffffffffffffff16815260200190815260200160002060008373ffffffffffffffffffffffffffffffffffffffff1673ffffffffffffffffffffffffffffffffffffffff16815260200190815260200160002060009054906101000a900460ff16905092915050565b60086020528160005260406000208181548110610cb757600080fd5b906000526020600020906003020160009150915050806000015490806001015490806002018054610ce7906122de565b80601f0160208091040260200160405190810160405280929190818152602001828054610d13906122de565b8015610d605780601f10610d3557610100808354040283529160200191610d60565b820191906000526020600020905b815481529060010190602001808311610d4357829003601f168201915b5050505050905083565b610d72610f38565b73ffffffffffffffffffffffffffffffffffffffff16610d90610941565b73ffffffffffffffffffffffffffffffffffffffff1614610de6576040517f08c379a0000000000000000000000000000000000000000000000000000000008152600401610ddd906126c8565b60405180910390fd5b600073ffffffffffffffffffffffffffffffffffffffff168173ffffffffffffffffffffffffffffffffffffffff161415610e56576040517f08c379a0000000000000000000000000000000000000000000000000000000008152600401610e4d906128c4565b60405180910390fd5b610e5f81611333565b50565b60007f01ffc9a7000000000000000000000000000000000000000000000000000000007bffffffffffffffffffffffffffffffffffffffffffffffffffffffff1916827bffffffffffffffffffffffffffffffffffffffffffffffffffffffff1916149050919050565b60008073ffffffffffffffffffffffffffffffffffffffff166002600084815260200190815260200160002060009054906101000a900473ffffffffffffffffffffffffffffffffffffffff1673ffffffffffffffffffffffffffffffffffffffff1614159050919050565b600033905090565b816004600083815260200190815260200160002060006101000a81548173ffffffffffffffffffffffffffffffffffffffff021916908373ffffffffffffffffffffffffffffffffffffffff160217905550808273ffffffffffffffffffffffffffffffffffffffff16610fb38361074f565b73ffffffffffffffffffffffffffffffffffffffff167f8c5be1e5ebec7d5bd14f71427d1e84f3dd0314c0f7b2291e5b200ac8c7c3b92560405160405180910390a45050565b600061100482610ecc565b611043576040517f08c379a000000000000000000000000000000000000000000000000000000000815260040161103a90612956565b60405180910390fd5b600061104e8361074f565b90508073ffffffffffffffffffffffffffffffffffffffff168473ffffffffffffffffffffffffffffffffffffffff1614806110bd57508373ffffffffffffffffffffffffffffffffffffffff166110a584610532565b73ffffffffffffffffffffffffffffffffffffffff16145b806110ce57506110cd8185610c07565b5b91505092915050565b8273ffffffffffffffffffffffffffffffffffffffff166110f78261074f565b73ffffffffffffffffffffffffffffffffffffffff161461114d576040517f08c379a0000000000000000000000000000000000000000000000000000000008152600401611144906129e8565b60405180910390fd5b600073ffffffffffffffffffffffffffffffffffffffff168273ffffffffffffffffffffffffffffffffffffffff1614156111bd576040517f08c379a00000000000000000000000000000000000000000000000000000000081526004016111b490612a7a565b60405180910390fd5b6111c8838383611758565b6111d3600082610f40565b6001600360008573ffffffffffffffffffffffffffffffffffffffff1673ffffffffffffffffffffffffffffffffffffffff16815260200190815260200160002060008282546112239190612a9a565b925050819055506001600360008473ffffffffffffffffffffffffffffffffffffffff1673ffffffffffffffffffffffffffffffffffffffff168152602001908152602001600020600082825461127a9190612ace565b92505081905550816002600083815260200190815260200160002060006101000a81548173ffffffffffffffffffffffffffffffffffffffff021916908373ffffffffffffffffffffffffffffffffffffffff160217905550808273ffffffffffffffffffffffffffffffffffffffff168473ffffffffffffffffffffffffffffffffffffffff167fddf252ad1be2c89b69c2b068fc378daa952ba7f163c4a11628f55a4df523b3ef60405160405180910390a4505050565b6000600660009054906101000a900473ffffffffffffffffffffffffffffffffffffffff16905081600660006101000a81548173ffffffffffffffffffffffffffffffffffffffff021916908373ffffffffffffffffffffffffffffffffffffffff1602179055508173ffffffffffffffffffffffffffffffffffffffff168173ffffffffffffffffffffffffffffffffffffffff167f8be0079c531659141344cd1fd0a4f28419497f9722a3daafe3b4186f6b6457e060405160405180910390a35050565b8173ffffffffffffffffffffffffffffffffffffffff168373ffffffffffffffffffffffffffffffffffffffff161415611468576040517f08c379a000000000000000000000000000000000000000000000000000000000815260040161145f90612b70565b60405180910390fd5b80600560008573ffffffffffffffffffffffffffffffffffffffff1673ffffffffffffffffffffffffffffffffffffffff16815260200190815260200160002060008473ffffffffffffffffffffffffffffffffffffffff1673ffffffffffffffffffffffffffffffffffffffff16815260200190815260200160002060006101000a81548160ff0219169083151502179055508173ffffffffffffffffffffffffffffffffffffffff168373ffffffffffffffffffffffffffffffffffffffff167f17307eab39ab6107e8899845ad3d59bd9653f200f220920489ca2b5937696c31836040516115599190611c78565b60405180910390a3505050565b6115718484846110d7565b61157d8484848461175d565b6115bc576040517f08c379a00000000000000000000000000000000000000000000000000000000081526004016115b390612c02565b60405180910390fd5b50505050565b606060405180602001604052806000815250905090565b60606000821415611621576040518060400160405280600181526020017f30000000000000000000000000000000000000000000000000000000000000008152509050611735565b600082905060005b6000821461165357808061163c90612809565b915050600a8261164c9190612c51565b9150611629565b60008167ffffffffffffffff81111561166f5761166e611f99565b5b6040519080825280601f01601f1916602001820160405280156116a15781602001600182028036833780820191505090505b5090505b6000851461172e576001826116ba9190612a9a565b9150600a856116c99190612c82565b60306116d59190612ace565b60f81b8183815181106116eb576116ea612cb3565b5b60200101907effffffffffffffffffffffffffffffffffffffffffffffffffffffffffffff1916908160001a905350600a856117279190612c51565b94506116a5565b8093505050505b919050565b6117548282604051806020016040528060008152506118e5565b5050565b505050565b600061177e8473ffffffffffffffffffffffffffffffffffffffff16611940565b156118d8578373ffffffffffffffffffffffffffffffffffffffff1663150b7a026117a7610f38565b8786866040518563ffffffff1660e01b81526004016117c99493929190612d37565b6020604051808303816000875af192505050801561180557506040513d601f19601f820116820180604052508101906118029190612d98565b60015b611888573d8060008114611835576040519150601f19603f3d011682016040523d82523d6000602084013e61183a565b606091505b50600081511415611880576040517f08c379a000000000000000000000000000000000000000000000000000000000815260040161187790612c02565b60405180910390fd5b805181602001fd5b63150b7a0260e01b7bffffffffffffffffffffffffffffffffffffffffffffffffffffffff1916817bffffffffffffffffffffffffffffffffffffffffffffffffffffffff1916149150506118dd565b600190505b949350505050565b6118ef8383611953565b6118fc600084848461175d565b61193b576040517f08c379a000000000000000000000000000000000000000000000000000000000815260040161193290612c02565b60405180910390fd5b505050565b600080823b905060008111915050919050565b600073ffffffffffffffffffffffffffffffffffffffff168273ffffffffffffffffffffffffffffffffffffffff1614156119c3576040517f08c379a00000000000000000000000000000000000000000000000000000000081526004016119ba90612e11565b60405180910390fd5b6119cc81610ecc565b15611a0c576040517f08c379a0000000000000000000000000000000000000000000000000000000008152600401611a0390612e7d565b60405180910390fd5b611a1860008383611758565b6001600360008473ffffffffffffffffffffffffffffffffffffffff1673ffffffffffffffffffffffffffffffffffffffff1681526020019081526020016000206000828254611a689190612ace565b92505081905550816002600083815260200190815260200160002060006101000a81548173ffffffffffffffffffffffffffffffffffffffff021916908373ffffffffffffffffffffffffffffffffffffffff160217905550808273ffffffffffffffffffffffffffffffffffffffff16600073ffffffffffffffffffffffffffffffffffffffff167fddf252ad1be2c89b69c2b068fc378daa952ba7f163c4a11628f55a4df523b3ef60405160405180910390a45050565b828054611b2d906122de565b90600052602060002090601f016020900481019282611b4f5760008555611b96565b82601f10611b6857805160ff1916838001178555611b96565b82800160010185558215611b96579182015b82811115611b95578251825591602001919060010190611b7a565b5b509050611ba39190611ba7565b5090565b5b80821115611bc0576000816000905550600101611ba8565b5090565b6000604051905090565b600080fd5b600080fd5b60007fffffffff0000000000000000000000000000000000000000000000000000000082169050919050565b611c0d81611bd8565b8114611c1857600080fd5b50565b600081359050611c2a81611c04565b92915050565b600060208284031215611c4657611c45611bce565b5b6000611c5484828501611c1b565b91505092915050565b60008115159050919050565b611c7281611c5d565b82525050565b6000602082019050611c8d6000830184611c69565b92915050565b600081519050919050565b600082825260208201905092915050565b60005b83811015611ccd578082015181840152602081019050611cb2565b83811115611cdc576000848401525b50505050565b6000601f19601f8301169050919050565b6000611cfe82611c93565b611d088185611c9e565b9350611d18818560208601611caf565b611d2181611ce2565b840191505092915050565b60006020820190508181036000830152611d468184611cf3565b905092915050565b6000819050919050565b611d6181611d4e565b8114611d6c57600080fd5b50565b600081359050611d7e81611d58565b92915050565b600060208284031215611d9a57611d99611bce565b5b6000611da884828501611d6f565b91505092915050565b600073ffffffffffffffffffffffffffffffffffffffff82169050919050565b6000611ddc82611db1565b9050919050565b611dec81611dd1565b82525050565b6000602082019050611e076000830184611de3565b92915050565b611e1681611dd1565b8114611e2157600080fd5b50565b600081359050611e3381611e0d565b92915050565b60008060408385031215611e5057611e4f611bce565b5b6000611e5e85828601611e24565b9250506020611e6f85828601611d6f565b9150509250929050565b600080600060608486031215611e9257611e91611bce565b5b6000611ea086828701611e24565b9350506020611eb186828701611e24565b9250506040611ec286828701611d6f565b9150509250925092565b600060208284031215611ee257611ee1611bce565b5b6000611ef084828501611e24565b91505092915050565b611f0281611d4e565b82525050565b6000602082019050611f1d6000830184611ef9565b92915050565b611f2c81611c5d565b8114611f3757600080fd5b50565b600081359050611f4981611f23565b92915050565b60008060408385031215611f6657611f65611bce565b5b6000611f7485828601611e24565b9250506020611f8585828601611f3a565b9150509250929050565b600080fd5b600080fd5b7f4e487b7100000000000000000000000000000000000000000000000000000000600052604160045260246000fd5b611fd182611ce2565b810181811067ffffffffffffffff82111715611ff057611fef611f99565b5b80604052505050565b6000612003611bc4565b905061200f8282611fc8565b919050565b600067ffffffffffffffff82111561202f5761202e611f99565b5b61203882611ce2565b9050602081019050919050565b82818337600083830152505050565b600061206761206284612014565b611ff9565b90508281526020810184848401111561208357612082611f94565b5b61208e848285612045565b509392505050565b600082601f8301126120ab576120aa611f8f565b5b81356120bb848260208601612054565b91505092915050565b600080600080608085870312156120de576120dd611bce565b5b60006120ec87828801611e24565b94505060206120fd87828801611e24565b935050604061210e87828801611d6f565b925050606085013567ffffffffffffffff81111561212f5761212e611bd3565b5b61213b87828801612096565b91505092959194509250565b600067ffffffffffffffff82111561216257612161611f99565b5b61216b82611ce2565b9050602081019050919050565b600061218b61218684612147565b611ff9565b9050828152602081018484840111156121a7576121a6611f94565b5b6121b2848285612045565b509392505050565b600082601f8301126121cf576121ce611f8f565b5b81356121df848260208601612178565b91505092915050565b6000602082840312156121fe576121fd611bce565b5b600082013567ffffffffffffffff81111561221c5761221b611bd3565b5b612228848285016121ba565b91505092915050565b6000806040838503121561224857612247611bce565b5b600061225685828601611e24565b925050602061226785828601611e24565b9150509250929050565b60006060820190506122866000830186611ef9565b6122936020830185611ef9565b81810360408301526122a58184611cf3565b9050949350505050565b7f4e487b7100000000000000000000000000000000000000000000000000000000600052602260045260246000fd5b600060028204905060018216806122f657607f821691505b6020821081141561230a576123096122af565b5b50919050565b7f4552433732313a20617070726f76656420717565727920666f72206e6f6e657860008201527f697374656e7420746f6b656e0000000000000000000000000000000000000000602082015250565b600061236c602c83611c9e565b915061237782612310565b604082019050919050565b6000602082019050818103600083015261239b8161235f565b9050919050565b7f4552433732313a20617070726f76616c20746f2063757272656e74206f776e6560008201527f7200000000000000000000000000000000000000000000000000000000000000602082015250565b60006123fe602183611c9e565b9150612409826123a2565b604082019050919050565b6000602082019050818103600083015261242d816123f1565b9050919050565b7f4552433732313a20617070726f76652063616c6c6572206973206e6f74206f7760008201527f6e6572206e6f7220617070726f76656420666f7220616c6c0000000000000000602082015250565b6000612490603883611c9e565b915061249b82612434565b604082019050919050565b600060208201905081810360008301526124bf81612483565b9050919050565b7f4552433732313a207472616e736665722063616c6c6572206973206e6f74206f60008201527f776e6572206e6f7220617070726f766564000000000000000000000000000000602082015250565b6000612522603183611c9e565b915061252d826124c6565b604082019050919050565b6000602082019050818103600083015261255181612515565b9050919050565b7f4552433732313a206f776e657220717565727920666f72206e6f6e657869737460008201527f656e7420746f6b656e0000000000000000000000000000000000000000000000602082015250565b60006125b4602983611c9e565b91506125bf82612558565b604082019050919050565b600060208201905081810360008301526125e3816125a7565b9050919050565b7f4552433732313a2062616c616e636520717565727920666f7220746865207a6560008201527f726f206164647265737300000000000000000000000000000000000000000000602082015250565b6000612646602a83611c9e565b9150612651826125ea565b604082019050919050565b6000602082019050818103600083015261267581612639565b9050919050565b7f4f776e61626c653a2063616c6c6572206973206e6f7420746865206f776e6572600082015250565b60006126b2602083611c9e565b91506126bd8261267c565b602082019050919050565b600060208201905081810360008301526126e1816126a5565b9050919050565b7f4552433732314d657461646174613a2055524920717565727920666f72206e6f60008201527f6e6578697374656e7420746f6b656e0000000000000000000000000000000000602082015250565b6000612744602f83611c9e565b915061274f826126e8565b604082019050919050565b6000602082019050818103600083015261277381612737565b9050919050565b600081905092915050565b600061279082611c93565b61279a818561277a565b93506127aa818560208601611caf565b80840191505092915050565b60006127c28285612785565b91506127ce8284612785565b91508190509392505050565b7f4e487b7100000000000000000000000000000000000000000000000000000000600052601160045260246000fd5b600061281482611d4e565b91507fffffffffffffffffffffffffffffffffffffffffffffffffffffffffffffffff821415612847576128466127da565b5b600182019050919050565b7f4f776e61626c653a206e6577206f776e657220697320746865207a65726f206160008201527f6464726573730000000000000000000000000000000000000000000000000000602082015250565b60006128ae602683611c9e565b91506128b982612852565b604082019050919050565b600060208201905081810360008301526128dd816128a1565b9050919050565b7f4552433732313a206f70657261746f7220717565727920666f72206e6f6e657860008201527f697374656e7420746f6b656e0000000000000000000000000000000000000000602082015250565b6000612940602c83611c9e565b915061294b826128e4565b604082019050919050565b6000602082019050818103600083015261296f81612933565b9050919050565b7f4552433732313a207472616e73666572206f6620746f6b656e2074686174206960008201527f73206e6f74206f776e0000000000000000000000000000000000000000000000602082015250565b60006129d2602983611c9e565b91506129dd82612976565b604082019050919050565b60006020820190508181036000830152612a01816129c5565b9050919050565b7f4552433732313a207472616e7366657220746f20746865207a65726f2061646460008201527f7265737300000000000000000000000000000000000000000000000000000000602082015250565b6000612a64602483611c9e565b9150612a6f82612a08565b604082019050919050565b60006020820190508181036000830152612a9381612a57565b9050919050565b6000612aa582611d4e565b9150612ab083611d4e565b925082821015612ac357612ac26127da565b5b828203905092915050565b6000612ad982611d4e565b9150612ae483611d4e565b9250827fffffffffffffffffffffffffffffffffffffffffffffffffffffffffffffffff03821115612b1957612b186127da565b5b828201905092915050565b7f4552433732313a20617070726f766520746f2063616c6c657200000000000000600082015250565b6000612b5a601983611c9e565b9150612b6582612b24565b602082019050919050565b60006020820190508181036000830152612b8981612b4d565b9050919050565b7f4552433732313a207472616e7366657220746f206e6f6e20455243373231526560008201527f63656976657220696d706c656d656e7465720000000000000000000000000000602082015250565b6000612bec603283611c9e565b9150612bf782612b90565b604082019050919050565b60006020820190508181036000830152612c1b81612bdf565b9050919050565b7f4e487b7100000000000000000000000000000000000000000000000000000000600052601260045260246000fd5b6000612c5c82611d4e565b9150612c6783611d4e565b925082612c7757612c76612c22565b5b828204905092915050565b6000612c8d82611d4e565b9150612c9883611d4e565b925082612ca857612ca7612c22565b5b828206905092915050565b7f4e487b7100000000000000000000000000000000000000000000000000000000600052603260045260246000fd5b600081519050919050565b600082825260208201905092915050565b6000612d0982612ce2565b612d138185612ced565b9350612d23818560208601611caf565b612d2c81611ce2565b840191505092915050565b6000608082019050612d4c6000830187611de3565b612d596020830186611de3565b612d666040830185611ef9565b8181036060830152612d788184612cfe565b905095945050505050565b600081519050612d9281611c04565b92915050565b600060208284031215612dae57612dad611bce565b5b6000612dbc84828501612d83565b91505092915050565b7f4552433732313a206d696e7420746f20746865207a65726f2061646472657373600082015250565b6000612dfb602083611c9e565b9150612e0682612dc5565b602082019050919050565b60006020820190508181036000830152612e2a81612dee565b9050919050565b7f4552433732313a20746f6b656e20616c7265616479206d696e74656400000000600082015250565b6000612e67601c83611c9e565b9150612e7282612e31565b602082019050919050565b60006020820190508181036000830152612e9681612e5a565b905091905056fea26469706673582212204d93e6f604184a7b594704464c4ab5d63a51cafb027c97663bb8f72057a6037364736f6c634300080a0033",
  "immutableReferences": {},
  "source": "//SPDX-License-Identifier: UNLICENSED\n\npragma solidity ^0.8.0;\n\nimport \"@openzeppelin/contracts/access/Ownable.sol\";\nimport \"@openzeppelin/contracts/token/ERC721/ERC721.sol\";\nimport \"@openzeppelin/contracts/utils/Counters.sol\";   \n\ncontract VolcanoToken is ERC721, Ownable {\n    \n    uint public tokenID = 1;\n\n    // using Counters for Counters.Counter;\n    // Counters.Counter private _tokenIds;\n    \n    constructor() ERC721(\"VolcanoToken\", \"VLT\") {}\n    \n    struct Token {\n        uint timestamp;\n        uint tokenId;\n        string tokenURI;\n    }\n\n    mapping(address => Token[]) public ownership;\n    \n    // Token[] tokens;\n    // mapping(address => Token[]) public _addressToToken;\n    // mapping(uint => address) public _tokenToOwner;\n    \n    \n    function mint(string memory _tokenURI) public {\n        Token memory token = Token({\n            timestamp: block.timestamp,\n            tokenId: tokenID,\n            tokenURI: _tokenURI\n        });\n        _safeMint(msg.sender, tokenID);\n        ownership[msg.sender].push(token);\n        tokenID++;\n    }\n    \n    // function returnMyTokens() public view returns (Token[] memory) {\n    //     return _addressToToken[msg.sender];\n    // }\n    \n    // function removeToken(uint _tokenID) internal {\n    //     for (uint i = 0; i < tokens.length; i++) {\n    //         if (tokens[i].tokenID == _tokenID){\n    //             delete tokens[i];\n    //         }\n    //     }\n    // }\n    \n    // function removeTokenFromOwner(uint _tokenID, address _address) internal {\n    //     for (uint i = 0; i < _addressToToken[_address].length; i++) {\n    //         if (_addressToToken[_address][i].tokenID == _tokenID){\n    //             delete _addressToToken[_address][i];\n    //         }\n    //     }\n    // }\n    \n    // function _baseURI() internal view virtual override returns (string memory) {\n    //     return \"VolcanoToken-\";\n    // }\n    \n    // function burnToken(uint256 tokenID) public onlyOwner returns (bool) {\n        \n    //     //Check if sender is the owner of token to be deleted using mapper of tokenID to owner address\n    //     require(_tokenToOwner[tokenID] == msg.sender);\n        \n    //     //Burn the token using OZ function\n    //     _burn(tokenID);\n        \n    //     //Remove from general tokens Array\n    //     removeToken(tokenID);\n        \n    //     //Remove from struct of Owner in tokens array\n    //     removeTokenFromOwner(tokenID, msg.sender);\n    //     return true;\n    // }\n}",
  "sourcePath": "/Users/roryspies/Desktop/Projects/encodesolidity/nftapp/SmartContract/VolcanoToken/contracts/VolcanoToken.sol",
  "compiler": {
    "name": "solc",
    "version": "0.8.10+commit.fc410830.Emscripten.clang"
  },
  "schemaVersion": "3.4.3",
  "updatedAt": "2021-12-26T21:05:08.197Z",
  "networkType": "ethereum",
  "devdoc": {
    "kind": "dev",
    "methods": {
      "approve(address,uint256)": {
        "details": "See {IERC721-approve}."
      },
      "balanceOf(address)": {
        "details": "See {IERC721-balanceOf}."
      },
      "getApproved(uint256)": {
        "details": "See {IERC721-getApproved}."
      },
      "isApprovedForAll(address,address)": {
        "details": "See {IERC721-isApprovedForAll}."
      },
      "name()": {
        "details": "See {IERC721Metadata-name}."
      },
      "owner()": {
        "details": "Returns the address of the current owner."
      },
      "ownerOf(uint256)": {
        "details": "See {IERC721-ownerOf}."
      },
      "renounceOwnership()": {
        "details": "Leaves the contract without owner. It will not be possible to call `onlyOwner` functions anymore. Can only be called by the current owner. NOTE: Renouncing ownership will leave the contract without an owner, thereby removing any functionality that is only available to the owner."
      },
      "safeTransferFrom(address,address,uint256)": {
        "details": "See {IERC721-safeTransferFrom}."
      },
      "safeTransferFrom(address,address,uint256,bytes)": {
        "details": "See {IERC721-safeTransferFrom}."
      },
      "setApprovalForAll(address,bool)": {
        "details": "See {IERC721-setApprovalForAll}."
      },
      "supportsInterface(bytes4)": {
        "details": "See {IERC165-supportsInterface}."
      },
      "symbol()": {
        "details": "See {IERC721Metadata-symbol}."
      },
      "tokenURI(uint256)": {
        "details": "See {IERC721Metadata-tokenURI}."
      },
      "transferFrom(address,address,uint256)": {
        "details": "See {IERC721-transferFrom}."
      },
      "transferOwnership(address)": {
        "details": "Transfers ownership of the contract to a new account (`newOwner`). Can only be called by the current owner."
      }
    },
    "version": 1
  },
  "userdoc": {
    "kind": "user",
    "methods": {},
    "version": 1
  }
}